S024000054656D706572617475726553656E736F72496E746572666163696E672E737265638E
S11300000C9472000C9493000C9493000C94930041
S11300100C9493000C9493000C9493000C94930010
S11300200C9493000C9493000C9493000C94930000
S11300300C9493000C9493000C9493000C949300F0
S11300400C9493000C9493000C9493000C949300E0
S11300500C9493000C9493000C9493000C949300D0
S11300600C9493000C9493000C9493000C949300C0
S11300700C9493000C9493000C9493000C949300B0
S11300800C9493000C9493000C9493000C949300A0
S11300900C9493000C9493000C9493000C94930090
S11300A00C9493000C9493000C9493000C94930080
S11300B00C9493000C9493000C9493000C94930070
S11300C00C9493000C9493000C9493000C94930060
S11300D00C9493000C9493000C9493000C94930050
S11300E00C94930011241FBECFEFD1E2DEBFCDBF2D
S11300F000E00CBF12E0A0E0B2E0ECE2F9E000E0C6
S11301000BBF02C007900D92A033B107D9F722E0CC
S1130110A0E3B2E001C01D92A934B207E1F70E9446
S113012016040C9494040C94000087B1876F87B96B
S113013088B1887088B9089586E69EE00197F1F742
S113014000004098419880E388B9429AEFEFF7E4C1
S11301503197F1F700C000004298E6E6FEE03197DF
S1130160F1F700004098419888B9429AEFEFF7E41C
S11301703197F1F700C000004298E6E6FEE03197BF
S1130180F1F700004098419888B9429A8FEF97E4BC
S11301900197F1F700C000004298E6E6FEE03197CF
S11301A0F1F700004098419880E288B9429A8FEFB5
S11301B097E40197F1F700C000004298089598B1C0
S11301C09F7098B998B1282F207F922B98B94098A6
S11301D04198429AEFEFF7E43197F1F700C000003D
S11301E0429898B19F7098B998B18295807F892B75
S11301F088B940984198429A8FEF97E40197F1F7B4
S113020000C00000429808950E9495000E949C003E
S113021086E69EE00197F1F7000088E20E94DF0085
S113022081E00E94DF0086E00E94DF008EE00E94F1
S1130230DF0080E80E94DF00089598B19F7098B9AC
S113024098B1282F207F922B98B9409A4198429ACE
S1130250EFEFF7E43197F1F700C00000429898B14E
S11302609F7098B998B18295807F892B88B9409AFC
S11302704198429A8FEF97E40197F1F700C000008C
S11302804298089580E80E94DF000895823071F05A
S113029018F4813031F00895833069F0843081F0AE
S11302A008958FE7860F0E94DF0008958FEB860F75
S11302B00E94DF00089583E9860F0E94DF000895FD
S11302C083ED860F0E94DF000895CF93DF93EC0146
S11302D08881882331F021960E941D018991811122
S11302E0FBCFDF91CF9108950F931F93CF93DF93AB
S11302F08A01E901882311F0611103C00E944201BF
S113030002C00E944601C530D10509F0DFC0980142
S1130310329522952F7023273F702327A7E4B3E05B
S11303200E948504969587959695879596958795C9
S1130330C09690933802809337020E941D01980161
S1130340369527953695279536952795A5ECB0E2F1
S11303500E948504AC01529542954F7045275F7009
S1130360452750933D0240933C029A01ADECBCEC0E
S11303700E94850496958795969587959695879579
S11303809C01220F331F880F991F880F991F880F14
S1130390991F820F931F9A01281B390BC901C0961C
S11303A090934802809347020E941D0103C0C3300A
S11303B0D10591F598013695279536952795ABE7A4
S11303C0B4E10E948504AC015695479550933D02D3
S11303D040933C029A01ADECBCEC0E9485049695D6
S11303E0879596958795969587959C01220F331F3F
S11303F0880F991F880F991F880F991F820F931FC9
S11304009A01281B390BC901C09690933F0280932F
S11304103E020E941D0104C0C230D10509F05BC038
S11304209801ADECBCEC0E948504AC01569547954F
S1130430569547955695479550933D0240933C02F7
S11304409A010E9485049695879596958795969529
S113045087959C01220F331F880F991F880F991FBE
S1130460880F991F820F931F9A01281B390BC9010A
S1130470C09690933B0280933A020E941D0198011A
S1130480ADECBCEC0E94850496958795969587956E
S1130490969587959C01220F331F880F991F880F0B
S11304A0991F880F991F820F931F9801281B390BDE
S11304B0C901C09690934602809345020E941D0193
S11304C026976CF085E60E941D0109C0C430D10551
S11304D009F06DCF34CFC130D10591F7D0CFDF9182
S11304E0CF911F910F91089581E00E94DF0008953C
S11304F0EAE0F1E080818064808308950E947802BC
S11305002FEF8FEF9CE2215080409040E1F700C034
S11305100000089560E070E0E9E0F1E0482F50E069
S113052006C06F5F7F4F613B86E3780759F0908187
S113053096FB222720F930E02417350791F380E059
S113054090E008956FEF7FEFCB01089581E08093F1
S11305503902AAE0B1E08C9180648C93EBE0F1E085
S113056080818064808386E69EE00197F1F7000035
S113057080818F7B808396E626EE80E09150204038
S11305808040E1F78081806480838AEC90E0019769
S1130590F1F700C0000080818F7B80838C918F7B7A
S11305A08C93F89480E00E948A026F3F7F4F8F4FB4
S11305B09F4F11F41092390281E00E948A026F3F2A
S11305C07F4F8F4F9F4F19F41092390207C08091CB
S11305D03902882319F01092300208958091300274
S11305E08F5F80933002833020F01092300280E0DD
S11305F0089578948FEF9FEF2CE281509040204033
S1130600E1F700C000000E94A60208954F925F9295
S11306106F927F928F929F92AF92BF92DF92EF92EE
S1130620FF920F931F93CF93DF93CDB7DEB7C554DB
S1130630D1400FB6F894DEBF0FBECDBFFE01EF5B15
S1130640FE4F85E0DF011D928A95E9F70E94A6021C
S1130650D82E882309F4B6C08E010F5F1F4F7E0188
S1130660BFEBEB1ABEEFFB0A80E00E948A02F8019E
S1130670608371838283938381E00E948A02D8011C
S113068014966D937D938D939C931797085F1F4FDA
S1130690E016F10649F7789489809A80AB80BC8093
S11306A04D805E806F807884BFEF8B169B06AB060F
S11306B0BB06E1F0EFEF4E165E066E067E06D1F441
S11306C015C080809180A280B3804480558066806C
S11306D077808FEF88169806A806B80639F0389602
S11306E0AFEF4A165A066A067A0641F410923902A6
S11306F0D12C68C0FE01399640E050E0CA01552370
S11307000CF4079695958795959587959595879576
S1130710A1E4B1E0AC0FBD1FA80FB91F2C91220FAB
S113072084149504A604B70440F0A1E4B1E0AC0F2E
S1130730BD1FA80FB91F2C9308C0A1E4B1E0AC0FF2
S1130740BD1FA80FB91F21602C934F5F5F4F483224
S1130750510509F0B6CFCB5BDE4F2881C554D1409B
S1130760CF5BDE4FE881C154D140CE5BDE4F588170
S1130770C254D140CD5BDE4F4881C354D140CC5BE1
S1130780DE4F3881C454D140622F70E0852F90E051
S11307908E0F911D840F911D830F911D992768174A
S11307A0790779F4A0E4B2E01296EC9312971396C9
S11307B05C9313974C9311963C93119714962C9336
S11307C001C0D12C8D2DCB5BDE4F0FB6F894DEBF6C
S11307D00FBECDBFDF91CF911F910F91FF90EF908E
S11307E0DF90BF90AF909F908F907F906F905F90BD
S11307F04F9008950E940603882319F080914002C7
S1130800089580E008950E940603882319F08091DA
S11308104202089580E008950E9404010E947E022D
S11308200895F8940E940C04789408950E94110489
S113083063E081E00E94460180E092E00E9465014D
S113084064E082E00E9446018EE092E00E9465012D
S11308502FEF8FEF99E5215080409040E1F700C0E1
S113086000000E94740266E081E00E94460189E172
S113087092E00E94650167E082E00E9446018BE2FB
S113088092E00E94650164E082E00E9446018FE1EB
S113089092E00E9465010E94FA03482F50E022E092
S11308A030E06AE082E00E9474018FED0E941D0135
S11308B085E292E00E9465012FEF8FEF9CE22150C8
S11308C080409040E1F700C0000064E082E00E94B4
S11308D0460187E292E00E9465010E940304482FCA
S11308E050E023E030E06AE082E00E9474018DE28F
S11308F092E00E9465012FEF8FEF9CE2215080402F
S11309009040E1F700C00000BECFA29FB001B39FAA
S1130910C001A39F700D811D1124911DB29F700D04
S10F0920811D1124911D0895F894FFCF4F
S113092C484143544F4245522D324B3139004F50BC
S113093C454E534F555243450044485431310054AD
S113094C454D503A00430048554D493A0025200086
S9030000FC
