S024000054656D706572617475726553656E736F72496E746572666163696E672E737265638E
S11300000C9472000C9493000C9493000C94930041
S11300100C9493000C9493000C9493000C94930010
S11300200C9493000C9493000C9493000C94930000
S11300300C9493000C9493000C9493000C949300F0
S11300400C9493000C9493000C9493000C949300E0
S11300500C9493000C9493000C9493000C949300D0
S11300600C9493000C9493000C9493000C949300C0
S11300700C9493000C9493000C9493000C949300B0
S11300800C9493000C9493000C9493000C949300A0
S11300900C9493000C9493000C9493000C94930090
S11300A00C9493000C9493000C9493000C94930080
S11300B00C9493000C9493000C9493000C94930070
S11300C00C9493000C9493000C9493000C94930060
S11300D00C9493000C9493000C9493000C94930050
S11300E00C94930011241FBECFEFD1E2DEBFCDBF2D
S11300F000E00CBF12E0A0E0B2E0EAE7F7E000E0C5
S11301000BBF02C007900D92A033B107D9F722E0CC
S1130110A0E3B2E001C01D92A934B207E1F70E9446
S11301203E030C94BB030C94000087B1876F87B91E
S113013088B1887088B9089586E69EE00197F1F742
S113014000004098419880E388B9429AEFEFF7E4C1
S11301503197F1F700C000004298E6E6FEE03197DF
S1130160F1F700004098419888B9429AEFEFF7E41C
S11301703197F1F700C000004298E6E6FEE03197BF
S1130180F1F700004098419888B9429A8FEF97E4BC
S11301900197F1F700C000004298E6E6FEE03197CF
S11301A0F1F700004098419880E288B9429A8FEFB5
S11301B097E40197F1F700C000004298089598B1C0
S11301C09F7098B998B1282F207F922B98B94098A6
S11301D04198429AEFEFF7E43197F1F700C000003D
S11301E0429898B19F7098B998B18295807F892B75
S11301F088B940984198429A8FEF97E40197F1F7B4
S113020000C00000429808950E9495000E949C003E
S113021086E69EE00197F1F7000088E20E94DF0085
S113022081E00E94DF0086E00E94DF008EE00E94F1
S1130230DF0080E80C94DF0098B19F7098B998B102
S1130240282F207F922B98B9409A4198429AEFEF39
S1130250F7E43197F1F700C00000429898B19F701D
S113026098B998B18295807F892B88B9409A419832
S1130270429A8FEF97E40197F1F700C0000042988B
S11302800895982F862F923059F018F4913031F058
S11302900895933039F0943039F00895815805C0A9
S11302A0815403C08D5601C08D520C94DF00CF934E
S11302B0DF93EC018991882319F00E941C01FACF85
S11302C0DF91CF91089581E00C94DF0080E80C94D5
S11302D0DF000F931F93CF93DF938A01E9018823F3
S11302E011F0611103C00E94660102C00E94410125
S11302F0C530D10509F061C0C80160E177E20E9410
S1130300A703CB01C09690933802809337020E94D2
S11303101C01C80168EE73E00E94A703CB0170932F
S11303203D0260933C026AE070E00E94A703C0961D
S113033090934802809347020E941C01C80164E61E
S113034070E00E94A703CB0170933D0260933C02CE
S11303506AE070E00E94A703C09690933F028093E6
S11303603E020E941C012AE030E0C801B9010E944B
S1130370A703CB0170933D0260933C02B9010E9434
S1130380A703C09690933B0280933A020E941C01FB
S1130390C8016AE070E00E94A703C09690934602E9
S11303A0809345020E941C012697B4F085E6DF91F4
S11303B0CF911F910F910C941C01C430D10509F405
S11303C0A8CFC330D10509F4B9CFC230D10559F251
S11303D0C130D10549F7DCCFDF91CF911F910F9147
S11303E00895EAE0F1E080818064808308950E94AA
S11303F0F1012FEF8FEF9CE2215080409040E1F714
S113040000C00000089560E070E090E040910901B0
S113041046FB222720F930E02817390751F46F5F93
S11304207F4F613B46E3740789F76FEF7FEFCB01A2
S1130430089580E090E00895CF93C1E0C09339021D
S113044080910A01806480930A0180910B01806489
S113045080930B0186E69EE00197F1F700008091FE
S11304600B018F7B80930B0196E626EE80E0915082
S113047020408040E1F780910B01806480930B0160
S11304808AEC90E00197F1F700C0000080910B0125
S11304908F7B80930B0180910A018F7B80930A01EB
S11304A0F89480E00E9403026F3F7F4F8F4F9F4F6D
S11304B011F41092390281E00E9403026F3F7F4FD2
S11304C08F4F9F4F11F4109239028091390281119C
S11304D007C0909130029F5F90933002933020F0D8
S11304E010923002CF91089578948FEF9FEF2CE211
S11304F0815090402040E1F700C000009FCF8F92D0
S11305009F92AF92BF92CF92DF92FF920F931F936D
S1130510CF93DF93CDB7DEB7C554D1400FB6F8946F
S1130520DEBF0FBECDBF8E010F5B1E4F85E0D8012D
S11305301D928A95E9F70E941C02F82E8823C1F1C6
S1130540FE0131966F015F0180E00E940302D50134
S11305506D937D938D939C93139781E00E94030286
S1130560F5016483758386839783F8E0AF0EB11C2D
S1130570A016B10649F7789420E030E0D6018D90BA
S11305809D90AD90BC90139714964D915D916D9193
S11305907C911797BFEF8B169B06AB06BB0631F019
S11305A04F3FEFEF5E076E077E0721F4109239028A
S11305B0F12C3EC0F90183E0F595E7958A95E1F7C2
S11305C0E00FF11F8081880F84169506A606B706F2
S11305D008F4816080832F5F3F4FF8E0CF0ED11C79
S11305E02832310559F6D80114962C911497EC91C0
S11305F011965C91119712964C91129713963C9117
S1130600622F70E0852F90E08E0F911D840F911D55
S1130610830F911D99276817790751F6E0934202D9
S1130620509343024093400230934102209344028A
S11306308F2DCB5BDE4F0FB6F894DEBF0FBECDBF60
S1130640DF91CF911F910F91FF90DF90CF90BF90DA
S1130650AF909F908F9008950E947F02882319F095
S113066080914002089580E008950E9404010C9452
S1130670F701F8940E943503789408950E94390391
S113068082E80E94DF0080E092E00E94570183EC40
S11306900E94DF008EE092E00E9457012FEF8FEF5F
S11306A099E5215080409040E1F700C000000E948D
S11306B0630185E80E94DF0089E192E00E9457010E
S11306C086EC0E94DF008BE292E00E94570183ECEB
S11306D00E94DF008FE192E00E9457010E942C03E8
S11306E0482F50E022E030E06AE082E00E94690195
S11306F08FED0E941C0185E292E00E9457012FEFCA
S11307008FEF9CE2215080409040E1F700C0000050
S113071083EC0E94DF0087E292E00E9457010E946E
S11307202C03482F50E023E030E06AE082E00E948E
S113073069018DE292E00E9457012FEF8FEF9CE256
S1130740215080409040E1F700C00000C0CFAA1BB8
S1130750BB1B51E107C0AA1FBB1FA617B70710F0A8
S1130760A61BB70B881F991F5A95A9F780959095DA
S10D0770BC01CD010895F894FFCFF9
S113077A484143544F4245522D324B3139004F5070
S113078A454E534F55524345004448543131005461
S113079A454D503A00430048554D493A002520003A
S9030000FC
